:020000041000EA
:1000000000B5324B212058609868022188439860DF
:10001000D860186158612E4B002199600221596106
:100020000121F02299502B49196001219960352056
:1000300000F044F80222904214D00621196600F024
:1000400034F8196E01211966002018661A6600F04E
:100050002CF8196E196E196E052000F02FF8012189
:100060000842F9D1002199601B49196000215960AB
:100070001A491B48016001219960EB211966A021F2
:10008000196600F012F800219960164914480160C1
:100090000121996001BC002800D000471248134993
:1000A000086003C880F30888084703B5996A0420EC
:1000B0000142FBD001200142F8D103BD02B5186610
:1000C0001866FFF7F2FF186E186E02BD00000240BE
:1000D000000000180000070000035F00212200005C
:1000E000F4000018222000A00001001008ED00E03C
:1000F00000000000000000000000000074B24E7A12
:1001000000200420F7010010C3010010C5010010F9
:10011000C1010010C1010010C1010010C101001097
:10012000C1010010C1010010C1010010C701001081
:10013000C1010010C1010010C9010010CB01001065
:10014000CD010010CD010010CD010010CD01001037
:10015000CD010010CD010010CD010010CD01001027
:10016000CD010010CD010010CD010010CD01001017
:10017000CD010010CD010010CD010010CD01001007
:10018000CD010010CD010010CD010010CD010010F7
:10019000CD010010CD010010CD010010CD010010E7
:1001A000CD010010CD010010CD010010CD010010D7
:1001B000CD010010CD010010CD010010CD010010C7
:1001C00000BE00BE00BE00BE00BE00BEEFF3058054
:1001D000103800BEF2EB887194A20E10B8A20E1077
:1001E0003402001090A31AE700201F49086006C8D7
:1001F00081F3088810471D48006800282FD10DA4FE
:100200000ECC002902D000F012F8F9E71849194A7B
:10021000002000E001C19142FCD1174988471749ED
:1002200088471749884700BEFDE701C901C29A42C5
:10023000FBD37047B8A20E10C0000020E4190020C4
:10024000DCBB0E100000042000000420DCBB0E10FC
:10025000001004200010042000000000704709482E
:1002600007F0A0FD0047000008ED00E0000000D00E
:10027000E81900200C580020F165001071220010D0
:10028000196700105756000006005250ABB3605378
:100290004C9B0E1006005250861C03025C9B0E10F5
:1002A000060052505422A29D689B0E100500525029
:1002B000DE65F468DCBB0E10F8B5C04610B5064C20
:1002C0002378002B07D1054B002B02D0044800E017
:1002D00000BF0123237010BDF01C002000000000AF
:1002E000B8F90010044B10B5002B03D003490448A3
:1002F00000E000BF10BDC04600000000F41C00205C
:10030000B8F90010F8B557464E464546DE46E0B50A
:100310001F4EC700BB59D025984601234246994637
:100320009340F6194F462D06AB62042000219A46F1
:1003300005F07CFB736800249F4008266400E3B24C
:1003400004200021AF629B4605F070FB43466C68B9
:100350000420DC404B461C405B4600216F62013E9E
:100360001C4305F063FB002EE8D1534604206B626A
:10037000002105F05BFBAF620420002105F056FB75
:100380006F622000F0BCBB46B246A946A046F8BD4D
:1003900014FC0010F8B5D0231B0647469846CE46FD
:1003A0004023424680B5936105F040FC80234246DD
:1003B0005361002306000F009946784C784D211CAC
:1003C000201C08F0A6FB291C041C281C08F08AFB32
:1003D000011C201C08F086FB08F0ACFB011C041C6F
:1003E000704808F082FB08F0E7FB08F099FB8019E1
:1003F0007941002917DB434680259D6105F0B4FA59
:1004000001239C46FF33E144994510D005F00EFCD2
:1004100043465D614B4606000F007F2B01DD624DB8
:10042000CDE75F4DCBE7012060494042E3E705F0AF
:10043000FDFB43465D615A4B06009946D0231B06DF
:100440000F0000259846554C211C201C08F061FB2C
:100450004946041C484608F045FB011C201C08F0D6
:1004600041FB08F067FB011C041C4E4808F03DFBF3
:1004700008F0A2FB08F054FB8019794100291CDB2D
:100480008023994643464A469A6105F06DFAB8239F
:1004900001359B009D4214D005F0C8FB43464A46F7
:1004A0005A61B82306000F005B009D4202DB3E4B01
:1004B0009946C9E73A4B9946C6E701203B49404275
:1004C000DEE7D0274026FC2400253F0605F0AEFBE2
:1004D0008023001969417B61BB61002950DB013E2B
:1004E00005F042FA002EF1D1D0231B069846402396
:1004F0004246536105F09AFB802342465361284BE4
:1005000006000F0000259946244C211C201C08F0F1
:1005100000FB4946041C484608F0E4FA011C201C74
:1005200008F0E0FA08F006FB011C041C1D4808F066
:10053000DCFA08F041FB08F0F3FA80197941002950
:100540001ADB8023994643464A469A6105F00CFA25
:10055000802301355B009D421BD005F067FB4346BD
:100560004A4606000F005A617F2D02DD0E4B994668
:10057000CBE70B4B9946C8E701200C494042E0E726
:1005800001200A494042013E05F0EEF9002E9DD1BE
:10059000AAE7C0BCB946B046F8BDC0460070F845F1
:1005A0000060EA47002474490060EAC7FFFFFF7F4C
:1005B000F8B5D02457464E464546DE46012224066D
:1005C000E0B5656863686D09DB08134099466368A8
:1005D00015401B091A4000239046002700269A4622
:1005E0001BE080231B019B4663610420002105F072
:1005F0001DFA5B46A361002D03D163689B06DB0FE8
:100600009A466568AD06ED0F002E22D0002F0CD063
:10061000C8200021400005F009FA5346002BE0D025
:10062000002E16D0002F28D1B2468023042063610B
:1006300000211F0005F0FAF94346A7610027002BAF
:1006400002D16768FF06FF0F6368DB06DB0F984681
:10065000DEE78026B60066610420002105F0E6F999
:100660004B46A6610026002B02D166683607F60FBE
:1006700063681B07DB0F9946C8E705F0D7FAD0255A
:1006800080232D061B016B61002306000F00984696
:10069000694C6A4B9946211C201C08F03AFA4946DD
:1006A000041C484608F01EFA011C201C08F01AFA27
:1006B00008F040FA011C041C614808F016FA08F022
:1006C0007BFA08F02DFA80197941002918DB802384
:1006D0001B01AB61994605F047F901239C46E623CF
:1006E000E044FF3398450FD005F0A0FA4B466B610C
:1006F000434606000F00F12BCBDD524B9946CAE76B
:10070000012051494042E2E705F090FA80239B0026
:100710006B6100239846494BD02506000F0099468F
:10072000454C2D06211C201C08F0F3F94946041CF9
:10073000484608F0D7F9011C201C08F0D3F908F04E
:10074000F9F9011C041C3E4808F0CFF908F034FA0E
:1007500008F0E6F98019794100291BDB80239B0012
:10076000AB61994605F000F901239C46B833E0449B
:10077000FF33984512D005F059FA4B466B6143465A
:1007800006000F00DB2B02DD2E4B9946CAE72B4BF0
:100790009946C7E701202C494042DFE705F046FAB9
:1007A00080236B61254B06009946D0231B060F0062
:1007B00000259846204C211C201C08F0AAF9494627
:1007C000041C484608F08EF9011C201C08F08AF928
:1007D00008F0B0F9011C041C194808F086F908F06B
:1007E000EBF908F09DF98019794100291ADB802383
:1007F000994643464A469A6105F0B6F846230135C4
:10080000FF339D4212D005F011FA43464A460600D6
:100810000F005A61A12D02DD0A4B9946CBE7074B29
:100820009946C8E7012008494042E0E7F0BCBB46D2
:10083000B246A946A046F8BD00A0A545007C1248D6
:1008400000247449007C12C8FFFFFF7FF8B5DE4624
:100850004E46454657461920E0B504F045FA0220B9
:1008600004F042FA0A2004F03FFA082004F03CFAAF
:10087000062004F039FA0B2004F036FA092004F0BF
:1008800033FA072004F030FA072004F02DFA05208F
:1008900004F02AFA032004F027FA042004F024FAD2
:1008A000002004F021FA012004F01EFA122004F0C6
:1008B0001BFA132004F018FA142004F015FA15207E
:1008C00004F012FA162004F00FFA1B2004F00CFAC0
:1008D0001C2004F009FAD0241A2004F005FA04239D
:1008E0002406A36199468023DB00A36198468023F8
:1008F0005B00A3619C468026802580218022802386
:10090000402780203601AD0009055205DB04A761B0
:100910009B46A661A561A061A161A261A36180233C
:100920009B0463624B466362434663626346636251
:1009300067626662656260626038A0621838A062B1
:100940000830A0620F38A0620130A0628020C0028F
:10095000A06280200003A06280204003A06280206B
:100960008003A06280205B46C003A0626162052014
:10097000626201216362002204F09EF900220121DB
:10098000032004F099F900220121042004F094F9D5
:1009900000220121002004F08FF900220121012012
:1009A00004F08AF900220121122004F085F90022C6
:1009B0000121132004F080F900220121142004F009
:1009C0007BF900220121152004F076F90022012193
:1009D000162004F071F90E2004F086F9002201219E
:1009E0000E2004F069F98023DB01A3620F20A361CC
:1009F00004F07AF9002201210F2004F05DF9802330
:100A00001B02A3620C20A36104F06EF900220121F5
:100A10000C2004F051F980235B01A3620D20A36137
:100A200004F062F9002201210D2004F045F9802331
:100A30009B01A362A361F0BCBB46B246A946A04697
:100A4000F8BDC046D0231B06F0B54E469946454634
:100A5000DE46574680234A46E0B5DB0085B002906B
:100A60000391936180235B00536105F0DFF8A023BD
:100A70004A461B015361204B04000D000027984695
:100A80001E4E311C301C08F044F84146061C4046FE
:100A900008F028F8011C301C08F024F808F04AF887
:100AA000011C061C164808F020F808F085F808F02C
:100AB00037F800196941002919DBA0231B0198466A
:100AC0004B46424601379A6104F04EFF182F1DD065
:100AD00005F0ACF84B46424604000D005A610B2F5E
:100AE00002DD084B9846CCE7034B9846C9E7012046
:100AF00005494042E1E7C0460060EA470070F8451A
:100B0000002474490060EAC7FFFFFF7F039B029A3D
:100B10009846934200DD90464346002B71DD5B1002
:100B2000019301235B4243449B46E14B9B4500DD1F
:100B300002E2D0231B0600259A46DE4C05F076F82B
:100B4000A02352461B015361019B06000F00AB42DC
:100B500000DC92E1D84B9946211C201C07F0D9FFFC
:100B6000494607F0BFFF07F0E5FF011C041CD3480E
:100B700007F0BBFF08F020F807F0D2FFA023524691
:100B8000801979411B019361002900DAC6E1013522
:100B900004F0EAFEAB45D1DAC94B43449946A84577
:100BA0002FDDD0231B069A4605F040F8A0235246BD
:100BB0001B0106000F005361A94500DDC4E1C14BD4
:100BC0009B46211C201C07F0A4FF594607F08AFF12
:100BD00007F0B0FF011C041CB84807F086FF07F0BF
:100BE000EBFF07F09DFFA0235246801979411B01BE
:100BF0009361002900DAAAE1013504F0B5FEA845A9
:100C0000D2D14246029B9B1A9946039B9B1A984657
:100C10004B46002B73DD5B1002934B46013B1A00E1
:100C20000193A34B9A4200DD84E1D0231B060025EB
:100C30009A46A04C04F0FAFF802352461B015361F0
:100C4000029B06000F00AB4200DC20E19A4B9B4662
:100C5000211C201C07F05DFF594607F043FF07F0F9
:100C600069FF011C041C954807F03FFF07F0A4FF33
:100C700007F056FF80235246801979411B0193618A
:100C8000002900DA3FE104F06FFE019B01359D422F
:100C9000D0DD8B4B4B440193A94530DDD0231B069F
:100CA0009A4604F0C3FF802352461B015361019B07
:100CB00006000F00AB4200DD40E1824B9B46211C49
:100CC000201C07F026FF594607F00CFF07F032FF03
:100CD000011C041C794807F008FF07F06DFF07F0BE
:100CE0001FFF80235246801979411B01936100291F
:100CF00000DA36E1013504F037FEA945D1D143468B
:100D0000002B71DD5B10019301235B4243449B4642
:100D1000674B9B4500DD0BE1D0231B0600279A465D
:100D2000644E04F083FF802352469B005361019B75
:100D300004000D00BB4200DCB3E05F4B9946311C60
:100D4000301C07F0E6FE494607F0CCFE07F0F2FE45
:100D5000011C061C594807F0C8FE07F02DFF07F0DC
:100D6000DFFE80235246001969419B0093610029F0
:100D700000DABEE0013704F0F7FDBB45D1DA504B95
:100D800043449946B8452FDDD0231B069A4604F00C
:100D90004DFF802352469B0004000D0053614F45D8
:100DA00000DACEE0474B9B46311C301C07F0B1FE09
:100DB000594607F097FE07F0BDFE011C061C3F4890
:100DC00007F093FE07F0F8FE07F0AAFE80235246D4
:100DD000001969419B009361002900DACBE00137DB
:100DE00004F0C2FDB845D2D1D0231B06984680231B
:100DF0004246DB00536180235B00936104F016FFE1
:100E0000A02342461B0153612F4B06000F00002513
:100E10009946284C211C201C07F07BFE4946041CE7
:100E2000484607F05FFE011C201C07F05BFE07F040
:100E300081FE011C041C214807F057FE07F0BCFE90
:100E400007F06EFE80197941002947DBA0231B01C2
:100E5000994643464A4601359A6104F085FD182DAE
:100E600040D004F0E3FE43464A4606000F005A61B4
:100E70000B2D30DD154B9946CCE7114B4344AB426B
:100E800002DD0023994667E60E4B994664E60C4B5B
:100E90004B44AB4202DD00239B46D9E6094B9B46FF
:100EA000D6E6074B4344BB4212DD0023994646E792
:100EB000150300000070F84500606A48002474497A
:100EC000EAFCFFFF00606AC80060EA470060EAC70A
:100ED0002E4B994633E72E4B99469BE701202D492F
:100EE0004042B3E705B0F0BCBB46B246A946A046B7
:100EF000F0BD012027494042013704F035FD5F4530
:100F000000DC0EE73BE701202249404204F02CFDC3
:100F1000019B01359D4200DC8CE6BAE601201D49AB
:100F20004042013504F020FD5D4500DC06E633E675
:100F30009B46F1E6019378E69B46FAE500239B4643
:100F4000BDE600239B462FE700239B4639E60120A0
:100F500010494042013504F007FDA84500D023E6C2
:100F60004FE601200B494042013504F0FDFCA94544
:100F700000D096E6C3E6012006494042013704F05E
:100F8000F3FCB84500D002E72EE7C04600606AC80F
:100F90000060EA47FFFFFF7FF0B5DE4657464E464A
:100FA0004546E0B5834685B0002800DC61E1D023EA
:100FB00040221B069A610023039304F037FED023DE
:100FC0001B06994680234A465361AE4B04000D0030
:100FD00000279846AC4E311C301C07F09AFD414664
:100FE000061C404607F07EFD011C301C07F07AFD10
:100FF00007F0A0FD011C061CA44807F076FD07F0D1
:10100000DBFD07F08DFD0019694100291ADB802303
:1010100098464B4642469A6104F0A6FC802301376D
:101020005B009F4212D004F001FE4B464246040092
:101030000D005A617F2F02DD954B9846CBE7914B0F
:101040009846C8E7012093494042E0E7413BFF3B17
:101050005B449946002B6EDD5B10029341235B429B
:101060005B441A0001938C4B9A4200DDFFE0D023D1
:101070001B0600259A46844C04F0D8FD8023524676
:101080005361029B06000F009D4200DBAFE0834BE3
:101090009846211C201C07F03CFD414607F022FD2C
:1010A00007F048FD011C041C784807F01EFD07F0FE
:1010B00083FD07F035FD8023524680197941936105
:1010C000002900DAC1E004F04FFC019B0135AB427E
:1010D000D2DA734B5B449846A9452CDDD0231B061E
:1010E0009A4604F0A3FD8023524606000F00536188
:1010F000A84500DD82E06B4B9B46211C201C07F0BD
:1011000008FD594607F0EEFC07F014FD011C041C15
:101110005E4807F0EAFC07F04FFD07F001FD802371
:101120005246801979419361002974DB013504F03E
:101130001BFCA945D5D1D0274026FC2400253F061D
:1011400004F074FD8023001969417B61BB610029B3
:101150006BDB013E04F008FC002EF1D1039B002B59
:101160006ED1D02340221B065A6104F05FFDD023CC
:101170001B069846802342465361424B06000F00EF
:1011800000259946404C211C201C07F0C2FC494612
:10119000041C484607F0A6FC011C201C07F0A2FC1A
:1011A00007F0C8FC011C041C384807F09EFC07F03F
:1011B00003FD07F0B5FC80197941002927DB802366
:1011C000994643464A469A6104F0CEFB8023013596
:1011D0005B009D4244D004F029FD43464A46060088
:1011E0000F005A617F2D0CDD294B9946CBE72C4B24
:1011F0005B449D4208DA002398464AE700239B4659
:101200007BE7204B9946BEE7264B984641E70120F5
:1012100020494042D3E701201E494042013504F0F5
:10122000A3FBA94500D05CE785E7012019494042AE
:10123000013E04F099FB002E82D1039B002B90D03D
:10124000D02340221B069A618FE7012011494042BA
:1012500004F08AFB019B0135AB4200DB0CE738E769
:1012600005B0F0BCBB46B246A946A046F0BD01930E
:10127000FDE643429B46D02340221B065A610123D0
:1012800003939AE60060EA470070F8450024744929
:101290000060EAC7FFFFFF7F1503000000606A4897
:1012A000AAFCFFFF00606AC8F0B54746CE4680B58D
:1012B000CB4BB1B01BA80200190031C931C231C9F2
:1012C00031C209680CA811601A0001001C3231CA31
:1012D00031C111CA11C122A81A000100303231CA2D
:1012E00031C131CA31C1126811A80A601A00010067
:1012F0004C3231CA31C111CA11C129A81A000100EA
:10130000603231CA31C131CA31C1A425002412680A
:1013100000200A600021ED000294039516AC002520
:1013200022000090019104957C33D0CBD0C250CBE9
:1013300050C2912300225B0008920993D02480239D
:101340002406DB000A9506900791636180235B0009
:10135000A36104F06BFCA0231B016361A14B060099
:101360000F0000249846A04D291C281C07F0D1FB33
:101370004146051C404607F0B5FB011C281C07F040
:10138000B1FB07F0D7FB011C051C984807F0ADFB2B
:1013900007F012FC07F0C4FB36184F41002F39DB71
:1013A000D023A022C8211B06120120009A61490007
:1013B00006F02AFD00290CD191312000FF3106F002
:1013C00023FDC0238000C0186844543800680028FA
:1013D00024D13000390004F0C7FA962301341B01F0
:1013E0009C421ED004F022FCD023A0221B06120136
:1013F0005A617F4B06000F009C4205DD7D4B9C42ED
:1014000005DD7D4B9846AFE7764B9846ACE7002369
:101410009846A9E70126794F7642C1E709F0E2FF35
:10142000D7E7774809F0DEFFFEF7B4FF04F0FEFBD4
:10143000D023A0221B0612015A616A4B06000F003E
:1014400000249846684D291C281C07F062FB414681
:10145000051C404607F046FB011C281C07F042FB18
:1014600007F068FB011C051C604807F03EFB07F015
:10147000A3FB07F055FB36184F41002F39DBD02373
:10148000A022C8211B06120120009A61490006F023
:10149000BBFC00290CD191312000FF3106F0B4FCD7
:1014A000C0238000C018684490380068002824D108
:1014B0003000390004F058FAC8230134DB009C42A4
:1014C0001ED004F0B3FBD023A0221B0612015A61E8
:1014D000474B06000F009C4205DD4A4B9C4205DD50
:1014E000454B9846AFE73F4B9846ACE700239846FC
:1014F000A9E70126414F7642C1E709F073FFD7E71C
:10150000062009F06FFFFEF745FF04F08FFBD023A4
:10151000A0221B0612015A61324B06000F00002464
:101520009846314D291C281C07F0F3FA4146051C4A
:10153000404607F0D7FA011C281C07F0D3FA07F041
:10154000F9FA011C051C294807F0CFFA07F034FB13
:1015500007F0E6FA36184F41002F39DBD023A022DE
:10156000C8211B06120120009A61490006F04CFCBC
:1015700000290CD191312000FF3106F045FCC02339
:101580008000C018684438380068002824D1300032
:10159000390004F0E9F9962301341B019C4233D051
:1015A00004F044FBD023A0221B0612015A61104B09
:1015B00006000F009C4205DD0E4B9C4205DD0E4BE4
:1015C0009846AFE7074B9846ACE700239846A9E753
:1015D00001260A4F7642C1E709F004FFD7E7C0466B
:1015E000E8FA00100060EA470070F84500247449EA
:1015F00015030000490600000060EAC7FFFFFF7FF7
:10160000110B000029030000FEF7C4FE04F00EFBDE
:10161000D023A0221B0612015A61C54B06000F0001
:1016200000249846C34D291C281C07F072FA414635
:10163000051C404607F056FA011C281C07F052FA18
:1016400007F078FA011C051CBB4807F04EFA07F0BA
:10165000B3FA07F065FA36184F41002F39DBD02373
:10166000A022C8211B06120120009A61490006F041
:10167000CBFB00290CD191312000FF3106F0C4FBD7
:10168000C0238000C01868447C380068002824D13A
:101690003000390004F068F9C8230134DB009C42B3
:1016A0001ED004F0C3FAD023A0221B0612015A61F7
:1016B000A24B06000F009C4205DDA14B9C4205DDBC
:1016C000A04B9846AFE79A4B9846ACE70023984664
:1016D000A9E701269C4F7642C1E709F083FED7E7D0
:1016E0009A4809F07FFEFEF755FE04F09FFAD023DA
:1016F000A0221B0612015A618D4B06000F00002428
:1017000098468C4D291C281C07F003FA4146051CFD
:10171000404607F0E7F9011C281C07F0E3F907F041
:1017200009FA011C051C844807F0DFF907F044FAA8
:1017300007F0F6F936184F41002F39DBD023A022ED
:10174000C8211B06120120009A61490006F05CFBCB
:1017500000290CD191312000FF3106F055FBC02348
:101760008000C01868441C380068002824D130006C
:10177000390004F0F9F8962301341B019C421ED075
:1017800004F054FAD023A0221B0612015A616B4BBD
:1017900006000F009C4205DD6D4B9C4205DD694B48
:1017A0009846AFE7624B9846ACE700239846A9E716
:1017B0000126654F7642C1E709F014FED7E7FEF730
:1017C000E9FD04F033FAD023A0221B0612015A616E
:1017D000574B06000F0000249846564D291C281C24
:1017E00007F097F94146051C404607F07BF9011CBC
:1017F000281C07F077F907F09DF9011C051C4E48DD
:1018000007F073F907F0D8F907F08AF936184F4155
:10181000002F39DBD023A022C8211B061201200093
:101820009A61490006F0F0FA00290CD191312000AC
:10183000FF3106F0E9FAC0238000C0186844C038C0
:101840000068002824D13000390004F08DF8C82346
:101850000134DB009C421ED004F0E8F9D023A02222
:101860001B0612015A61354B06000F009C4205DD34
:10187000334B9C4205DD334B9846AFE72C4B9846E3
:10188000ACE700239846A9E701262F4F7642C1E72F
:1018900009F0A8FDD7E7FEF77DFD04F0C7F9D023D6
:1018A0001B069846A02342461B01536100230600F5
:1018B0000F0099461F4C1E4D211C201C07F029F9D2
:1018C000291C041C281C07F00DF9011C201C07F022
:1018D00009F907F02FF9011C041C174807F005F956
:1018E00007F06AF907F01CF980197941002918DB23
:1018F000A02543462D019D6104F036F801239C4646
:10190000C823E1449B00994524D004F08FF9434655
:101910005D61C82306000F005B00994505DB094D9A
:10192000CAE7012008494042E2E7014DC4E7C0464A
:101930000060EA470070F845002474491503000070
:10194000290300000060EAC7FFFFFF7F1A2F000095
:1019500049060000FEF71EFD04F068F943465D618C
:10196000694B06000F0000249846684D291C281C6E
:1019700007F0CFF84146051C404607F0B3F8011CBC
:10198000281C07F0AFF807F0D5F8011C051C6048CB
:1019900007F0ABF807F010F907F0C2F836184F411E
:1019A000002F39DBD023A022C8211B061201200002
:1019B0009A61490006F028FA00290CD191312000E3
:1019C000FF3106F021FAC0238000C018684468384F
:1019D0000068002824D13000390003F0C5FFC82377
:1019E0000134DB009C421ED004F020F9D023A02259
:1019F0001B0612015A61474B06000F009C4205DD91
:101A0000454B9C4205DD454B9846AFE73E4B98461B
:101A1000ACE700239846A9E70126414F7642C1E78B
:101A200009F0E0FCD7E7FEF7B5FC04F0FFF8D0239F
:101A3000A0221B0612015A61334B06000F0000243E
:101A40009846324D291C281C07F063F84146051CB6
:101A5000404607F047F8011C281C07F043F807F040
:101A600069F8011C051C2A4807F03FF807F0A4F8A4
:101A700007F056F836184F41002F39DBD023A0224B
:101A8000C8211B06120120009A61490006F0BCF92A
:101A900000290CD191312000FF3106F0B5F9C023A7
:101AA0008000C0186844A8380068002824D130009D
:101AB000390003F059FFC8230134DB009C421ED0DB
:101AC00004F0B4F8D023A0221B0612015A61114B76
:101AD00006000F009C4205DD0F4B9C4205DD0F4BBD
:101AE0009846AFE7084B9846ACE700239846A9E72D
:101AF00001260B4F7642C1E709F074FCD7E731B0FD
:101B0000C0BCB946B046F0BD0060EA470070F84579
:101B10000024744915030000290300000060EAC78F
:101B2000FFFFFF7FF0B5DE4657464E464546E0B51F
:101B30000B7804009B46423BDBB285B0102B39D8B2
:101B40009748D840C30712D45B46442B00D101E12B
:101B500000210020002A06D01378552B00D1EBE09D
:101B6000442B00D1FFE0FEF76DFFA3461AE04B784F
:101B7000272B00D178E0323B5A425341C8225B42C6
:101B80009200134098469446E044462C20D0522CB4
:101B90006DD0422C00D1BAE04C2C00D179E0404607
:101BA000FFF7FAF9584605B0F0BCBB46B246A94665
:101BB000A046F0BD5B46552BCAD14B780021272BA0
:101BC00000D1B6E0322B00D1E1E096200001C1E760
:101BD0005B46462BE3D0522B00D1A1E0422B50D0E4
:101BE0004C2BDCD16F4B01939B3BFF3B0393962324
:101BF0001B010293D02380221B06D2005A6180224F
:101C000000245200684D9A6104F010F8D0231B069E
:101C10009946A0231B019A464B4652465A61634B94
:101C200006000F009C423DD8039B9C423ADA291CD7
:101C3000281C06F06EFF5E4906F054FF06F07AFF9E
:101C4000011C051C5B4806F050FF06F0B5FF06F0CE
:101C500067FF4B465246801979419A6100294FDB54
:101C600003F082FE0134CFE7534B98468DE75B4685
:101C7000462BB7D0522B92D0422B51D04C2B00D0B8
:101C80008DE74E4B01930A3B0393C823DB0002937D
:101C9000B0E75B46462B43D0522BF2D0422B00D00C
:101CA0007DE79FE7019B9C4223DA00239946291C8C
:101CB000281C06F02EFF494606F014FF06F03AFFF6
:101CC000011C051C3B4806F010FF06F075FF06F0EE
:101CD00027FF8019794100290EDBD023A0221B06A3
:101CE00012019A6103F040FE029B01349C428BDB9F
:101CF00055E7334B9946DAE7012032494042ECE799
:101D000001203049404203F02FFE01347CE75B465E
:101D1000462BB6D0522B00D164E74C2B00D03EE7C7
:101D20000A2301938733FF3303939133FF330293E5
:101D300060E7C82080000DE75378272B20D0323B86
:101D40005A42534158421C4B184096231B019C4653
:101D5000604408E74B78272B15D0C821322B1CD0C4
:101D600000208900F6E65178272913D032394B42FA
:101D70005941C8239B009C46494219406144F2E600
:101D8000C8208000EFE6962100200901E2E6C82085
:101D9000C000DFE696210901E5E60020C900D9E68A
:101DA000110401004A0600000070F8451503000008
:101DB00000606A4800247449E0FCFFFF2A03000029
:101DC00000606AC8FFFFFF7FF0B5C646002480466A
:101DD0000D0000B50100344807F08AF9334F2100A7
:101DE0002A5D3800013407F083F9202CF7D12E004A
:101DF0000027012029782E4C0B00423BDBB2132B2D
:101E00003AD82200DA40130002009A43130032004D
:101E1000002B1FD05178561C0029EDD17B00404685
:101E20005955002F25D03E00013F404600240CE0CC
:101E30006300EA5CE918552A24D0442A2BD00022FA
:101E4000FFF770FE0134B44213DABC42F0DB6100EC
:101E50006918F4E77B00E9547178EB180132597086
:101E60007E1C00291DD051783700561C0029C3D193
:101E7000D4E780BCB846F0BD32005178561C00292A
:101E8000BAD1CBE70233EA18EB5C442BD7D1FFF78A
:101E900049FE0234D7E70233EA18EB5C552BCED16A
:101EA000F5E773005955C0E7B8F90010D0F90010F4
:101EB00015040900F8B5FEF77BFB00270E4D02E084
:101EC0000A2003F0C5FD2B68002BF9D02F600424F5
:101ED000FFF7EAF9462609F08FFA002802D00378C6
:101EE000002B03D1013C002CF5D1ECE701003000C0
:101EF000FFF76AFF0600F5E7D4570020F8B5254B39
:101F0000C0001A58DE46934657464E4645460C00DA
:101F1000012259469946E0B58A40D02601239046D1
:101F200008279A463606814414E04346736204202B
:101F3000002103F07BFD4B4655465B6804209D4025
:101F40000021B5626400013F03F070FDE4B27562E8
:101F5000002F05D063B2002BE7DA4346B362E6E711
:101F6000D02443462406A3620420002103F05EFD32
:101F7000A5620420002103F059FD5A466368012040
:101F8000D34065621840F0BCBB46B246A946A046A5
:101F9000F8BDC04614FC0010F8B5DE4657464E4664
:101FA0004546E0B5244EC30099469B590127984603
:101FB0003B004246D02593402D064E44AB628A46F4
:101FC000042000219B4603F031FD736800249F40EC
:101FD00001230826994604200021AF6203F026FD64
:101FE00042466B686400D3404A46042013400021F7
:101FF000E4B26F62013E1C4303F018FD002EEAD1EB
:102000005346002B14D05B46AB62D0252D0604202E
:10201000002103F00BFDAF620420002103F006FD58
:102020006F622000F0BCBB46B246A946A046F8BD90
:102030005B466B62E9E7C04614FC0010F8B5012668
:10204000CE464746C3001A009946330080B5874FF5
:10205000D024D2592406934005004F440420002187
:10206000A362984603F0E2FC7B6804209E400021B6
:10207000A66203F0DBFC4346802763620420002154
:1020800003F0D4FC66620420002103F0CFFC28009A
:102090005221FFF733FF28008121FF01FFF72EFFB8
:1020A0002800FF21FFF72AFF67620420002103F0C8
:1020B000BDFC80231B02A36204200021994603F08B
:1020C000B5FCA7620420002103F0B0FC43460420C5
:1020D000A362002103F0AAFCA6620420002103F001
:1020E000A5FC434604206362002103F09FFC666266
:1020F0000420002103F09AFC28005221FFF7FEFE85
:1021000028008321FFF7FAFE2800FF21FFF7F6FEE3
:1021100067620420002103F089FC4B460420A3627F
:10212000002103F083FCA7620420002103F07EFC61
:1021300043460420A362002103F078FCA662042039
:10214000002103F073FC434604206362002103F086
:102150006DFC66620420002103F068FC2800522117
:10216000FFF7CCFE28008F21FFF7C8FE28000121D1
:10217000FFF7C4FE67620420002103F057FC4B46C2
:102180000420A362002103F051FCA7620420002177
:1021900003F04CFC43460420A362002103F046FCFC
:1021A000A6620420002103F041FC43460420636240
:1021B000002103F03BFC66620420002103F036FCA2
:1021C00028005221FFF79AFE28008021FFF796FE93
:1021D00028000121FFF792FE67620420002103F02E
:1021E00025FC4B460420A362002103F01FFC0021C4
:1021F000A762042003F01AFC032003F029FC4346E5
:102200000420A362002103F011FCA6620420002137
:1022100003F00CFC434604206362002103F006FC3B
:1022200066620420002103F001FC28005221FFF720
:1022300065FE28008021FFF761FE28000321FFF7DB
:102240005DFE67620420002103F0F0FB4B46042092
:10225000A362002103F0EAFBA7620420002103F03F
:10226000E5FBC0BCB946B046F8BDC04614FC001042
:10227000F0B5DE46574645464E46E0B5A1B006F0FD
:1022800043FFFEF7E3FA01F061FDE54809F004F9C8
:10229000E44BE54D9B46E54BD0249A4601230027AD
:1022A0009946A846240643464D461B6804209D4097
:1022B0000021A56203F0BAFB43464E465B6804204A
:1022C0009E400021A66203F0B1FB0420002165625C
:1022D00003F0ACFB04200021666203F0A7FB52214F
:1022E0003800FFF70BFE92213800FFF707FE0420AD
:1022F0000021A56203F09AFB04200021A66203F0EE
:1023000095FB04200021656203F090FB042000216E
:10231000666203F08BFB53213800FFF7EFFD802648
:1023200001213800FFF738FEF601050000210420E6
:10233000666203F07BFB80231B0204200021A36262
:1023400003F074FB04200021A66203F06FFB4D2D07
:1023500000D05DE33800FFF771FE3900584606F003
:10236000C7FE534606220020F900009702F004F948
:10237000642003F06DFB08239C46E044012F00D04D
:10238000EDE20622AA4B1021002002F0F5F801F040
:10239000FFFBFA20800003F05BFB80231B056361D9
:1023A00080235B05A3618023DB04A36100239A469D
:1023B000D0245246012503939E4B24069B46636816
:1023C00000261B0DBA4602921D4258D063685B0D71
:1023D0001D426BD063689B0C1D4200D1BFE0029B85
:1023E000002B00D0C6E001F01BFD082200210020D8
:1023F000914B02F0C1F80822102100208F4B02F00F
:10240000BBF88F4B08222021002002F0B5F8039B77
:10241000002B00D194E0082320221021642001F039
:1024200009FD08232A222021642001F003FD012355
:10243000039301F0ADFB002302936368DB0C1D42A4
:1024400016D10A2003F004FB029F6368DB0C1D42D7
:10245000FBD00A20029703F0FBFA002F6AD0002E6F
:1024600000D151E2012E00D1A6E2022E00D17FE27E
:1024700000235A46136063681B0D1D42A6D10A2033
:1024800003F0E6FA029F63681B0D1D42FBD00A2091
:10249000029703F0DDFA002F00D1BDE033005A1E91
:1024A0009341F61A63685B0D1D4293D10A2003F035
:1024B000CFFA029F63685B0D1D42FBD00A2003F038
:1024C000C7FA002F00D18DE0012E00DC49E26368DD
:1024D0009B0C2B4243D001F0A3FC002108220800F2
:1024E000584B02F049F8082210210020564B02F008
:1024F00043F8082220210020544B02F03DF8082226
:1025000030210020524B02F037F8012E51D1082320
:1025100020221021642001F08DFC08232A22202192
:10252000642001F087FC082320223021642001F080
:1025300081FC52E0039B002B00D18BE0029397E7D4
:102540002A2210216420083301F074FC0823202281
:102550002021642001F06EFC6BE7534603930A20B0
:1025600003F076FA63689B0C1D42FBD00A2003F04F
:102570006FFA38E701F054FC082200210020314BAB
:1025800001F0FAFF0822102100202F4B01F0F4FF88
:102590000822202100202D4B01F0EEFF08223021DF
:1025A00000202B4B01F0E8FF002E00D1A3E1012E0B
:1025B000ADD0022E11D1082320221021642001F079
:1025C00039FC202208231100642001F033FC082389
:1025D0002A223021642001F02DFC01F0D9FA0123D8
:1025E00002932AE7012263689B0C1A42B5D001F0DE
:1025F00017FC0822002100200F4B01F0BDFF08222C
:10260000102100200D4B01F0B7FF082220210020EF
:102610000B4B01F0B1FFFEE600230393D6E6C04664
:10262000B51E0010E0F9001014FC0010FCF90010B9
:1026300040FA0010D457002054FA001064FA001039
:1026400070FA00107CFA00108CFA001098FA001052
:10265000A4FA00105B461D60F34BD0279B463F0653
:10266000182380251E00ED0103E0013E002E00D15D
:1026700006E108F0C1FEED4B04009842F5D80420B5
:102680000021BD6203F0D2F980231B029A46BB628F
:102690000420002103F0CAF9042000217D6203F028
:1026A000C5F9534604207B62002103F0BFF9522193
:1026B0000020FFF723FCB6210020FFF71FFC0420B9
:1026C0000021BD6203F0B2F953460420BB62002131
:1026D00003F0ACF9042000217D6203F0A7F9534612
:1026E00004207B62002103F0A1F953210020FFF7B1
:1026F00005FC0020FDF706FE02900020FDF702FE1B
:1027000003900020FDF7FEFD04900020FDF7FAFD88
:1027100005900020FDF7F6FD012106900020FFF74F
:102720003BFC0021079004207D6203F07FF95346B3
:102730000420BB62002103F079F904200021BD626E
:1027400003F074F980235B0104200021BB629946E9
:1027500003F06CF980239B0104200021BB629846A2
:1027600003F064F94B46042000217B6203F05EF91C
:10277000434604207B62002103F058F952210120D6
:10278000FFF7BCFBB6210120FFF7B8FB4B46042046
:102790000021BB6203F04AF9434604200021BB62DA
:1027A00003F044F94B46042000217B6203F03EF91C
:1027B000434604207B62002103F038F953210120B5
:1027C000FFF79CFB0120FDF79DFD08900120FDF720
:1027D00099FD09900120FDF795FD0A900120FDF774
:1027E00091FD81460120FDF78DFD01210B90012017
:1027F000FFF7D2FB002180467D62042003F016F92A
:1028000053460420BB62002103F010F9042000218C
:10281000BD6203F00BF90399230A080202995A00DA
:1028200008435946D3185A00885205995A1C080281
:1028300004995200084359468852079A02331002FD
:10284000069A5B001043C852FF20099A04406000BA
:1028500004191002089A630010434A46C852100235
:102860000A9A631C5B001043C852434618020B9B34
:10287000023464001843013E0853002E00D0F8E6ED
:1028800059466B4806F034FC58466A4900F034F962
:10289000A22200215200584606F01EFA65496648F9
:1028A00006F026FC634B1B78002B17D000246149EF
:1028B0000DA800F04BFE614D2A0020000DA901F08B
:1028C00061F82A0021005E4806F012FC013428005D
:1028D00008F088FD3735042CEED1C1E6002008F061
:1028E00081FD002008F07EFD002008F07BFD002027
:1028F00008F078FDB4E608232A221021642001F0B4
:1029000099FA082320220AE680231B05A361994631
:1029100080235B056361984680234A4ADB041032BA
:10292000A36113000DAA83CB83C283CB83C283CB65
:1029300083C21B78312013700AAB9C46032200210E
:10294000604406F0C9F946200DA9FFF73DFA4A4652
:102950008023A2614246DB04A261636188E501270E
:10296000A1E4636801369B0C2B4200D0B3E5F6E589
:1029700080231B05A361994680235B05636198460C
:1029800080233049DB044322A36160310DA81F007E
:1029900006F0A8F90AAB9C464F20082200216044AB
:1029A00006F09AF946200DA9FFF70EFA4A46A261F1
:1029B0004246A26167615BE580231B05A3619946DE
:1029C00080235B05636198468023DB04A3611D4B74
:1029D0000DAA383383CB83C283CB83C283CB83C21C
:1029E0001B780AA88446137031236344180003221D
:1029F000002106F071F946200DA9FFF7E5F94B46D5
:102A0000A3614346A3618023DB04636102952FE544
:102A100039000D4806F06CFB0021062208000B4B24
:102A2000009701F0A9FDFEE7A4260020FEFF0000AC
:102A3000B0FA001010520020C4FA0010F85600201E
:102A4000D8FA001068FB001010FA00102CFA0010E1
:102A5000F8B51D000700884200DA0F001400BA42E2
:102A600000DA3C000B00914200DD1300834200DDE0
:102A70000300E61AA3421DD0A04210D0A14231D0DB
:102A8000BA421ADA0020002C04D0B0022100801BC8
:102A900005F0BAF9069B1860079B1C60F8BD9142CF
:102AA00015DB891A0801401A8000310005F0ACF9E5
:102AB0002860E7E700232B60E4E7411A0801401A89
:102AC0008000310005F0A0F9F0302860DAE7891ABB
:102AD0000801401A8000310005F096F96930FF3096
:102AE0002860CFE7121A1001801A3100800005F02B
:102AF0008BF978302860C5E7A2235B00F0B5DE468D
:102B00009B460023454698461D3357464E469A46F7
:102B10000023E0B5040045469946804695B00391F0
:102B2000834406AE05AFA2886188208804AB019675
:102B30000097FFF78DFF049B784A9A1801D54F3311
:102B40001A0049465046059B2280069A6380D30F9F
:102B500090424B41A2800634ED185C45E3D14346D8
:102B6000A84642461D00002433000A2A00DDCEE0BC
:102B70001C7001340133362CFAD137003000353760
:102B80002730327853009B185B00EB1832005C88CA
:102B900005E0137811705370013297420BD05178D1
:102BA0004B005B185B00EB185B88A342F1D8013245
:102BB0001C009742F3D1013F8742E2D132785300A3
:102BC0009B185B0032005C5B05E01378117053705A
:102BD000013282420AD051784B005B185B005B5B8C
:102BE000A342F2D801321C008242F4D1501E864228
:102BF000E4D14620039F33785525F8547378522446
:102C0000F854B378F854F378F8543379F854737966
:102C1000F854B379F854F379F8544223327A984649
:102C2000BB54727ABB54B27ABB54F27ABB54327B37
:102C3000BB54727BBB54B27BBB54F27BBB54327C23
:102C40001A3BBD54727C9946BD54B27CBD54F27C93
:102C5000BD54327DBD54727DBD54B27DBD54F27DF4
:102C6000BD544C22317E7A54717E7A54B17E7A54AE
:102C7000F17E7A54317F7A54717F7A54B17F7A54DD
:102C8000F17F7A542021715C7C542121715C7C5449
:102C90002221715C7C542321715C7C542421715C61
:102CA0007C542521715C7C542621715C7C54272145
:102CB000715C7C54F15C8C4644216346F9542923B1
:102CC000F35CF9542A23F35CF9542B23F35CF95495
:102CD0002C23F35CF9542D23F35CF9542E23F35C7D
:102CE000F9542F23F65C4B46B9553D717C73B8758A
:102CF000F977FA5443461B3ABB5400220C3BFA5472
:102D000015B0F0BCBB46B246A946A046F0BD04488B
:102D100006F04CF9039B1C70F2E7C046E7FEFFFF8C
:102D200024FC0010F0B5DE4657464E464546E0B559
:102D300003008DB0012900D129E102290AD0002029
:102D4000032900D1B3E10DB0F0BCBB46B246A946A1
:102D5000A046F0BDC67F062E00D876E104220020F2
:102D600001279D7F02970895062D0DD85A24EC4027
:102D7000A743029708D1141F651EAC416542052484
:102D80002C400F340019013A01275D7F0597099502
:102D9000062D05D85A24EC40A743059700D156E2EA
:102DA00001251C7F0495A446062C06D85A246746A4
:102DB000FC40A543049500D1E0E10125DC7E0395AC
:102DC000A046062C06D85A244746FC40A543039546
:102DD00000D194E101259C7E0695A146062C06D8DB
:102DE0005A244F46FC40A543069500D16BE10125CE
:102DF0005C7E0795A246062C06D85A245746FC400E
:102E0000A543079500D16AE11D7E0195062D07D8DF
:102E10005A24EC40E40703D5541E2243D20F8018F5
:102E20000624DA79A243012A00D10BE39A79A2435E
:102E3000012A00D117E35A79A243012A00D119E3EC
:102E40000422002406251F79AF43012F00D165E13C
:102E50000625DF78AF43012F00D173E19F78AF43A0
:102E6000012F00D182E106275978B943012900D109
:102E70003DE106211B788B43012B03D1531E1343E5
:102E8000DB0FE418019A062A00D909E15A23D3403E
:102E9000DB0700D404E1002501230AA90A700BAA6C
:102EA000079F002F00D1F7E0574657550135069F81
:102EB000002F00D1ECE04F4657550135039F002FFE
:102EC00000D1E1E0474657550135049F002F00D15E
:102ED000D6E0674657550135059F002F00D1CBE05E
:102EE000099F57550135029F002F00D1BCE0089F74
:102EF00057550135062E00D9BCE05A27F740FF0789
:102F000000D4B7E0CE540D784F78012D00D1F7E111
:102F1000012F00D185E28B78012B00D19DE2D6787C
:102F20005178032F00D1EFE1032B00D16FE2350080
:102F30009678042B02D00B0029001D00072900D130
:102F4000D9E1072D00D167E2072E03D12B000D0038
:102F5000190016788D429B418E4289415B4249425D
:102F60005B185A00AE429B415B42D21843001B18CB
:102F7000E000041B20015B00001B9B1880001B1855
:102F8000C1495A10885CDB075CD50009DBE62022CA
:102F9000805C420012182120185C12185000801822
:102FA00022229A5C12185000801823229A5C121870
:102FB0005000801824229A5C121850008018252294
:102FC0009A5C12185000801826229A5C1018020190
:102FD000121A54011419DA7A072A00D9EBE09A7A06
:102FE000072A3AD85A7A072A00D927E20422002071
:102FF0001D7A072D00D958E1DD79072D00D966E14A
:103000009D79072D00D92FE15D79072D00D90BE1BE
:103010001D79072D00D9F4E0DD78072D00D9E1E016
:103020009D78072D00D9D1E05D78072D00D9BAE051
:103030001B78072B00D9B1E0241894496310C85CB1
:10304000E307A2D40F2318407DE65A22F240D207AC
:1030500000D483E60322232082E65A7A072A00D985
:1030600064E20322D220C3E7089FCF540133062E27
:1030700000D842E7565546E7099FCF54013332E75F
:103080006746CF54013327E74746CF5401331CE747
:103090004F46CF54013311E75746CF54013306E76B
:1030A000019B0BAA1370012500230AA9F8E6DA7F19
:1030B000002A00D12AE1022A00D1B9E1052A00D074
:1030C00025E1022123E1002A00DCF1E1012A00D1FF
:1030D000F6E1941E65426C410019013A87E6002A28
:1030E00000DCE1E1013A5442544100198CE6002A27
:1030F00000DCD5E1013A514251416418B9E6002A99
:1031000000D1DBE1012A00D1C6E1022A00D1C3E1EE
:10311000141F651EAC410019013A5BE6022A00D17A
:10312000DCE1171F7D1EAF417D4203272F40013791
:103130000625E419DF78013AAF43012F0DD1002AAB
:1031400000D179E1012A00D1A4E1022A00D1A1E154
:10315000171F7D1EAF41E419013A06259F78AF4342
:10316000012F00D07FE6002A00DC63E1012A02D0B3
:10317000911E4F4279416418013A74E6012A00D148
:10318000A0E1022A00D19FE1141F651EAC416542F7
:1031900003242C4001340019013A0EE6531E1A4351
:1031A000D20F801848E7002A00DC99E1013A514229
:1031B000514140183CE79A7A072A00D9A7E15A7A88
:1031C000072A65D8A5200322400011E7002A00DC69
:1031D00080E1012A00D18AE1951E6E4275414019B5
:1031E000013A21E7002A00DC76E1012A00D155E10D
:1031F000022A00D152E1151F6E1EB5414019013A55
:103200000EE7002A00DC63E1012A00D171E1022A05
:1032100000D17AE1151F6E1EB5416E42032535407F
:1032200001354019013AF7E6002A00DC4EE1012A97
:1032300000D162E1022A00D163E1151F6E1EB54183
:103240006E420525354005354019013AE0E6022A6F
:1032500000D148E1141F651EAC41654205242C4095
:1032600005340019013A9BE5012A00D13DE1022A0B
:1032700000D144E1151F6E1EB5416E420525354053
:103280000F354019013ABFE6A04209103C00011079
:10329000A52003225425400028181D7A013A072D45
:1032A00000D8A9E60825012A09D0022A00D12AE17E
:1032B000151F6E1EB5410D266D42B54346354019AA
:1032C000DD79013A072D0ED90125002A09D0012AFE
:1032D00000D110E1951E6E4275410D266D42B54339
:1032E00023354019013A9D79072D00D88CE6002A34
:1032F000BADC0125C5E72B00117835001E0029E650
:103300008B785678D1780CE6957812E600211F7FED
:103310005E7EDD7E9C7FB5428041B7429241B442E1
:10332000B64152424042801876428019420012183B
:10333000AF428041AC42AD41BC42A4414042121870
:103340006D425219644252001219920090465E7901
:103350005D78DC78D879AE42BF418844AC4289417F
:10336000A842AD417F424942C9196D4249194D00F9
:103370006918A642AD41A042A4416D424919644278
:103380001F790919B04280411C789E78A74292416A
:103390004D0040422D189879A642894152429446E8
:1033A000A042A44149426442614409194C00611899
:1033B000B742A441B042B641B842804100276442BE
:1033C000091976421C7A89195B7A4042490009182A
:1033D000E0179C4278412600C0184C00EB005B19B6
:1033E0006118083E89005B015B1871008919093872
:1033F00008181B185900CB185B0143441A005249A6
:103400005B10C85CD30700D41CE600099BE49378EA
:10341000157813703B008CE50B00157831001E0009
:1034200098E55378167813708B782F00D17878E56B
:1034300001216CE701219EE601278CE60422002091
:103440007E2529E79A79A243012A67D05A79A243B7
:10345000012A6FD003222324F4E4D378117856781C
:1034600013702B005DE55A79A243012A22D0032272
:103470000F24E7E404220024052706253C191F79C0
:10348000013AAF43012F00D0E2E4012A00D045E623
:1034900004274DE603275EE603243CE60325ADE65C
:1034A0000121013A6418E4E40124013A0019ABE473
:1034B000012411E60F2403220A27DEE701242AE66D
:1034C000022409E6042466E6062464E60125BBE638
:1034D0000125A6E6012582E601258FE6062727E6D7
:1034E000013A4018A4E50A24BBE60625C9E60225F0
:1034F00075E6042595E60725F3E60525A4E60F25E0
:10350000BFE60A25A0E61C25D9E6062589E65A7AF3
:10351000072A11D8E1200222400069E55A79A24326
:10352000012A0ED1022237240A27A6E70322D2203D
:103530005425B1E62324BEE7E120022224254000E1
:10354000AAE60A0037247DE40C7C09101823F0B5A4
:1035500057464E464546DE469A46364BE0B58046CF
:103560000D0007009946344E83B0B24473780024AE
:103570009C463378E95C4B4603E001340233182C57
:1035800050D01A788A42F8D162465878AA5C9042A4
:10359000F3D10C21200004F037FC2000CBB20C2129
:1035A0009B4604F031FCC0B25B4602363B70387378
:1035B0000137B245DAD118234344019320239C46B6
:1035C0001E4BE044994607239C461D4FBB780022C2
:1035D0009A463B787878EC5C4B4603E00132033343
:1035E000182A23D01978A142F8D15E78295C8E423E
:1035F000F4D199788B465146695C8B45EED1634690
:103600001340D210D2B2019903370B704B1C0A72CF
:1036100001939845DAD103B0F0BCBB46B246A94647
:10362000A046F0BD002302209B46BDE70023153ACB
:10363000E9E7C046B08C0E10E08C0E10508C0E10D6
:10364000988C0E10F8B5474690460C0005005300C4
:10365000704943449B005A5CCE46805CAA18207097
:103660006D48127B1E5CC918724022734A78C318D9
:10367000AE5CAA186670127B587880B542406273BF
:103680008A78A85CAA18A070127B98784240A2732E
:10369000CA78A85CAA18E070127BD8784240E2731E
:1036A0000A79A85CAA182071127B1879424022740A
:1036B0004A79A85CAA186071127B587942406274FA
:1036C0008A79A85CAA18A071127B98794240A274EA
:1036D000CA79A85CAA18E071127BD8794240E274DA
:1036E0000A7AA85CAA182072127B187A42402275C6
:1036F0004A7AA85CAA186072127B587A42406275B6
:103700008A7A464FA85CAA18A072127B987ADB7A54
:103710004240A275CA7AA95CAA18E172127B032101
:103720005340E3754346DE00F35DBF19EB181A7E84
:10373000203322763A4A1B78B05C9146C01804F0D8
:1037400063FB2023E1547B784E44EB181A7E203330
:103750006276187873780321C01804F055FB212392
:10376000E154BB780321EB181A7E2033A276187837
:10377000B378C01804F048FB2223E154FB780321FE
:10378000EB181A7E2033E2761878F378C01804F02C
:103790003BFB2323E1543B790321EB181A7E2033B2
:1037A000227718783379C01804F02EFB2423E154D3
:1037B0007B790321EB181A7E2033627718787379AE
:1037C000C01804F021FB2523E154BB790321EB1839
:1037D0001A7E2033A2771878B379C01804F014FB4E
:1037E0002623E154FB790321EB181A7E2033E2777C
:1037F0001878F379C01804F007FB27232822E15436
:10380000AB5C0133A35442462923E254C0BCB94601
:10381000B046F8BD508E0E10288F0E10308D0E1051
:10382000C08D0E10F0B5DE4657464E464546E0B513
:1038300093B00192029300222823CA540133FF322D
:1038400083460591CA54022800D986E0494B82007C
:10385000D35803935342123304932A22464805F067
:1038600041FA454D07AC2A3538E0637BA27B5B000B
:1038700092001343E17B227BC90013430B43217C5D
:10388000627C09011943A37C520111439B01E27C34
:103890000B43217DD20113430902627D1943A37DAD
:1038A000520211439B020B4334495A10885C012297
:1038B0001A424FD000092823E65C002E05D02922A9
:1038C000029BA25C9B19013B1A7000284AD0019B05
:1038D0003018984210DD284B9D4232D92A3D2A22C9
:1038E0002900200005F0FEF95B46002BBDD05946AB
:1038F0002000FFF717FADEE7039A049B944663441F
:103900009A46292316009946A8464B460321E05CB7
:1039100004F0A2FA3578C7B20321280004F074FA43
:10392000874207D041462A002000FFF78BFE2A235A
:103930009C46E0440136B245E7D145460E4B9D42D8
:10394000CCD80120404213B0F0BCBB46B246A946D9
:10395000A046F0BD0F231840ADE706230493084BA3
:1039600003937AE72A222100059805F0BBF930007D
:10397000E9E7C0460C8C0E10102800203CFC00101B
:10398000488C0E10F0B5C64607000E001400002546
:1039900000B586B02A003100380001ABFFF742FFC6
:1039A000002809DA0135122DF4D10023601C2370A0
:1039B00006B080BCB846F0BD0028F6D0154B01AF6C
:1039C0009C4620233A78984653009B186246D118AB
:1039D000D35C3D18002B15D02000013103700B780B
:1039E00001342600002BF7D143460137741C337095
:1039F000BD42DAD03A7853009B186246D118D35CA6
:103A0000002BE9D1260043460137741C3370BD42B8
:103A1000F0D1CAE7F88C0E10F8B5CE464746D0254F
:103A200080B5802780242D06BF0264020021060095
:103A30006F61012001F0FAFF012000216C6101F0AB
:103A4000F5FF01200021AF6101F0F0FFAC61012022
:103A5000002101F0EBFF80239946083B00249846A3
:103A600015E080239B026B618027012000217F02EB
:103A700001F0DCFF012000216F6101F0D7FF01346C
:103A800001200021AF6101F0D1FF082C08D04B4686
:103A9000424623411A42E4D180239B02AB61E3E713
:103AA000D02580272D067F02012000216F6101F0C3
:103AB000BDFF01200021AF6101F0B8FF80239B0210
:103AC0000824984643460120AB61002101F0AEFF77
:103AD000013C012000216F6101F0A8FFE4B2012048
:103AE0000021AF6101F0A2FF002CEBD101200021E9
:103AF0006F6101F09BFFAF610120002101F096FF93
:103B0000802399468023D0259B0298462D0614E0F9
:103B100043466B618027012000217F0201F086FF70
:103B2000012000216F6101F081FF0134012000219B
:103B3000AF6101F07BFF082C06D04B4623411E42AB
:103B4000E6D14346AB61E5E7D024802580262406F4
:103B50006D0265610120002101F068FFB602A561D8
:103B60000120002101F062FFA6610120002101F087
:103B70005DFF65610120002101F058FF66610120B1
:103B8000002101F053FFC0BCB946B046F8BDC046A5
:103B9000F0B557464E46DE4645466B4BE0B59A4675
:103BA000D02400238026802783B001932406760248
:103BB000B0208025019BAD021843FFF72DFF102098
:103BC000FFF72AFF0020FFF727FF01200021656192
:103BD00001F02CFF01200021666101F027FF012088
:103BE0000021A56101F022FF01200021A66101F062
:103BF0001DFF78230025984613E080239B02636114
:103C00000120002101F012FF01200021666101F076
:103C10000DFF013501200021A66101F007FF082DED
:103C200008D03B0042462B411A42E6D180239B023A
:103C3000A361E5E701200021666101F0F7FE0120A4
:103C40000021A66101F0F2FE40230025984613E012
:103C500080239B0263610120002101F0E7FE012027
:103C60000021666101F0E2FE013501200021A6611C
:103C700001F0DCFE082D08D03B0042462B411A42E1
:103C8000E6D180239B02A361E5E701200021666164
:103C900001F0CCFE01200021A66101F0C7FE8023C7
:103CA00053449B4653461B780025994680239B022C
:103CB000984612E0434663610120002101F0B6FE00
:103CC00001200021666101F0B1FE013501200021D3
:103CD000A66101F0ABFE082D07D03B004A462B4100
:103CE0001A42E7D14346A361E6E70120002166615D
:103CF00001F09CFE01200021A66101F097FE012346
:103D00009C46E244DA45CDD18025AD020120002158
:103D1000A56101F08BFE01200021666101F086FEA5
:103D200001200021656101F081FE019B0133DBB2BE
:103D30000193082B00D03BE703B0F0BCBB46B24672
:103D4000A946A046F0BDC0460C1D002070B510204D
:103D500000F0CAFF112000F0C7FFD0248023802587
:103D60005B022406AD02636201206562002163618B
:103D700001F05CFE00216561012001F057FEAE20DC
:103D8000FFF74AFED520FFF747FE8020FFF744FEED
:103D9000A820FFF741FE3F20FFF73EFED320FFF7AC
:103DA0003BFE0020FFF738FE4020FFF735FEA12044
:103DB000FFF732FEC820FFF72FFEDA20FFF72CFEB8
:103DC0001220FFF729FE8120FFF726FECF20FFF704
:103DD00023FED920FFF720FEF120FFF71DFEDB2098
:103DE000FFF71AFE3020FFF717FEA420FFF714FE9E
:103DF000A620FFF711FE8D20FFF70EFE1420FFF71F
:103E00000BFEAF20FFF708FE80220021D2000348FE
:103E100004F062FFFFF7BCFE70BDC0460C1D002021
:103E2000802210B500210248D20004F055FF10BDD9
:103E30000C1D0020F0B5DE4657464E464546E0B51F
:103E40008BB094460191082B00D1CDE0062B06D013
:103E50000BB0F0BCBB46B246A946A046F0BD42B28C
:103E6000002AF5DB3F29F3D87A2803D98026764249
:103E7000361AF3B201990822382900D93AE2019999
:103E800088469044414500DB1DE31E18B04200DB2C
:103E900019E30722524B9246063AC3460F00914659
:103EA0009846029353464C463B409C40E4430300F3
:103EB0000100FA08D50164B245446A5C013322402E
:103EC000DBB26A541900B342F7DB0137FFB25F453A
:103ED000E8DB6246203A5300424C9A185200A65C36
:103EE000131907223700029C0199A4469946CB0872
:103EF00011408F40DA016244145C3C431454072B98
:103F000000D1E3E20824641AA246029C0133A446CD
:103F100054462641DB0163441F5C3E431E54461C4D
:103F20007F2895D04C4667783C008C40A446945D31
:103F3000A046644645462C439455544627419C5D13
:103F400027439F55861C7E2800D181E74C46A778E1
:103F50003C008C40A046945DA446444665462C43F4
:103F60009455544627419C5D27439F55C61C7F2E80
:103F700000DD6DE74C46E7783C008C40A046945D40
:103F8000A446444665462C439455544627419C5DBF
:103F900027439F55061D7F2E00DD59E74C462779A4
:103FA00005303C008C40A046945DA44644466546DE
:103FB0002C439455544627419C5D27439F557F28A9
:103FC00000DD45E74C466579165C2C008C402100ED
:103FD00031431154524615411A5C15431D5437E7BD
:103FE0000C1D002000900E1042B2002A00DA2FE7CC
:103FF0003F2900D92CE7782803D980267642361A43
:10400000F3B201991022302902D94022521AD2B2B9
:10401000019988469044414500DB6FE11E18B0428B
:1040200000DB6BE10A000721B64B8A460639C3461E
:1040300089469846029353464D4613409D40ED43B2
:1040400003000400D108CF016DB24744395D01334C
:104050002940DBB239551C00B342F7DB0132D2B242
:104060005A45E8DB871C0497C71C019E0597071D6E
:10407000BB46471DF1086346451C0797871D0991FC
:10408000039506970D00C71D013108970191072779
:1040900031009D4A203B1B013940D75C9C183A00F7
:1040A000029E8A40B446EB016344B8461F5C3A4323
:1040B0001A54072D00D129E108264746761A3741C0
:1040C000019A451CD2016244B446165C374317542A
:1040D000802D7AD06678451C37008F40B0465E5DF3
:1040E00037435F55664647463741565D3743575518
:1040F000851C7F2D69D8A678851C37008F40B04677
:104100005E5D37435F55664647463741565D3743E8
:104110005755C51C7F2D58D8E678C51C37008F40F1
:10412000B0465E5D37435F55664647463741565D4C
:1041300037435E4657557F2E47D826793700B0461D
:104140005E468F409E5D37435E469F5566464746B6
:1041500037415E46965D37435E469755461D7F2E36
:1041600033D86579471D2E008E40A846DD5D2E436D
:10417000DE55654646462E41D55D2E43851DD655F6
:104180007F2D22D8A67937008F40B946871DB046CB
:10419000DE5DB2464E4655462E43DE5565464646E2
:1041A0002E41D55D2E43C51DD6557F2D0DD8E57901
:1041B000C71D2E008E40A846DD5D2E43DE556546A8
:1041C00043462B41D55D2B43D355019F082F00D18A
:1041D0003EE6237A029D9846AC468B40FA01624443
:1041E0009C466646135C33431354072F00D1FDE011
:1041F000099F08260237FB014746AC46761A37412D
:104200006344B4461E5C37431F540398802800D192
:104210001EE60500607A565D07008F40374366460C
:10422000304157555E5D3043585504987F2800D97A
:104230000EE60700A07A05008D40A8464646D55DEB
:104240003543D55565462841DD5D2843D855059849
:104250007F2800D9FCE50700E07AD55D06008E4096
:104260003543D55565462841DD5D2843D855584628
:104270007F2800D9ECE5207B5D4606008E40555D29
:1042800035435E469555654628419D5D28439855C2
:1042900007987F2800D9DBE50700607BD55D060025
:1042A0008E403543D55565462841DD5D2843D855B8
:1042B00006987F2800D9CBE50700A07BD55D0600D6
:1042C0008E403543D55565462841DD5D2843D85598
:1042D00008987F2800D9BBE50500E07B04008C40EE
:1042E0002100545D21435155624610415A5D1043EF
:1042F0005855ADE54022521AD2B2C0E5014B0293A7
:10430000B0E6C0460C1D00203C920E10431C802BD2
:1043100000D15AE7F218E0239B009C466378624480
:104320008B403500167833431370831C7F2B00D9E4
:104330004BE7EA18E0239B009C46A37862448B403D
:1043400015782B431370C31C7F2B00D93DE7029BCC
:10435000C21C9A18E0239B009C46E37862448B4081
:1043600015782B4313705B467F2B00D92DE7E02394
:104370009B009C462379029A8B405A4462441578EC
:104380002B431370431D7F2B00D91EE7431D9C4612
:10439000E023029A9B0062449C46637962448B400E
:1043A00015782B431370831D7F2B00D90DE7831DD8
:1043B000029D9C46E0232A009B0062449C46A37910
:1043C00062448B40167833431370C31D7F2B00D992
:1043D000FBE69C46E0232A009B0062449C46E3796E
:1043E00062448B4015782B431370EEE6039B802BC1
:1043F00000D12DE5AC46634428001D00E0239B005E
:104400009C46637A65448B402A7813432B70049B47
:104410007F2B00D91CE5844663441E00E0239B00EB
:104420009C46A37A66448B40327805001343337070
:10443000059B7F2B00D90BE5844663441F00E023D6
:104440009B009C46E37A67448B403A7813433B7069
:104450005B467F2B00D9FBE40200237B5A448B4050
:104460006244107803431370079A7F2A00D9EFE45F
:10447000E023AC469B0062449C46637B62448B40D5
:10448000107803431370069A7F2A00D9E0E4E023F2
:10449000AC469B0062449C46A37B62448B401078F0
:1044A00003431370089B7F2B00D9D1E49C46E02383
:1044B0002A009B0062449C46E37B62448B40117857
:1044C0000B431370C4E42B4B029302E5431C7F287B
:1044D00000D1BDE4E02292006344654694464A461A
:1044E000527863448A401C7822431A70831C7E28C9
:1044F00000D1ADE4E022AC469200634494464A46C3
:10450000927863448A401C7822431A70C31C7F2B24
:1045100000DD9DE4029A9446E022920063449446B2
:104520004A46D27863448A401C7822431A70031D9D
:104530007F2B00DD8CE4029DE022AC4692006344B8
:1045400094464A46127963448A401C7805302243D7
:104550001A707F2800DD7BE4E023AC469B006044BA
:104560009C464B465A7960448A4001780A4302705F
:104570006EE4C0460C1D002008B4F0B5DE464E4681
:1045800057464546E0B596B091461FAA04910C00E7
:1045900002CA83460EA80D9207F0B4FC0CAB1A7A3F
:1045A000002A00D166E240231B1B0821DBB2382C15
:1045B00000D972E20498C9B2844661440791C108E7
:1045C0004C1C0591099410210894302800D966E20A
:1045D0000498C9B2844680236144069159465B42DF
:1045E0005B1ADBB2009300230193073303401900E9
:1045F000029308235B1A0393059B90460233DB0169
:104600005D460A9316E0062B00D193E10821019A3A
:104610004D440132D3B20CAA52180193D35C4A46DE
:104620009846009BEDB29B1ADBB200934346002BE9
:1046300000D11FE24B46082BE5D16BB2002BE5DB26
:10464000049B3F2BE2D80826782D00D91CE2049B5E
:10465000069A934200DB1DE27619B54200DB19E2AF
:104660001F00B24B9C4601239A46069B9B4607239C
:1046700050463B409840C0432B002900FA08D40123
:1046800040B26444625C01330240DBB26254190000
:10469000B342F7DB0137FFB25F45E8DB4346A4498D
:1046A000203B1B01CF5C58183900029EEA1CB14028
:1046B0009346EA1D0B92059A6C1CD30163445E5D20
:1046C00031435955072A00D1EDE1099AD101039AE6
:1046D000614417414A5D17434F55802C00D191E04A
:1046E0004778029E3A00B24092461A5D9046524682
:1046F000464632431A55039A17410A5D1743AA1CCE
:104700000F557F2A7ED88778029E3A00B240AE1CB1
:1047100092469A5D9046524646463243AE1C9A55A2
:10472000039A17418A5D17435A468F557F2A69D8E5
:10473000C778029E3A00B24092465A469A5C90462A
:1047400052464646324390465A4646469E54039A3F
:1047500017415A468A5C17435A468F542A1D7F2AAE
:1047600050D80779029E3A00B24092462A1D9E5CBC
:10477000B0465646424616432A1D9E54039E374174
:104780008E5C37438F546A1D7F2A3BD84779029E3F
:104790003A00B24090466A1D9E5CB246464652467A
:1047A00016436A1D9E54039E37418E5C37438F54D7
:1047B000AA1D7F2A26D88779029E3A00B2409046E9
:1047C000AA1D9E5CB246464652461643AA1D9E54FA
:1047D000039E37418E5C37438F54EA1D7F2A11D8E0
:1047E000C779029E3A00B2409246EA1D9E5CB046EE
:1047F000564642461643EA1D9E54039B1F418B5C5E
:104800001F438F54089A082A00D1FFE6077A029EB8
:104810003900B14088464646D3016344595D31436F
:104820005955072A00D1A2E1039A0A991741614418
:104830004A5D17434F55802C00D1E7E6477A029E28
:104840003A00B24094461A5D90466246464632436C
:104850001A55039A17410A5D1743AA1C0F557F2A60
:1048600000D9D3E6847A029A27009740AE1C9A5D5D
:104870001743039A9F5514415A468F5D3C438C550C
:104880007F2A00D9C2E6C47A029A260096405A4688
:104890009F5C3E439E54039A14415A468E5C3443B7
:1048A0008C542A1D7F2A00D9B0E6047B029A270087
:1048B00097402A1D9E5C3E439E54039E34418E5C6D
:1048C00034438C546A1D7F2A00D99FE6447B029AA8
:1048D000260096406A1D9F5C3E439E54039E3441D1
:1048E0008E5C34438C54AA1D7F2A00D98EE6847BCB
:1048F000029A26009640AA1D9F5C3E439E54039E4A
:1049000034418E5C34438C54EA1D7F2A00D97DE605
:10491000C07B029A06009640EA1D9C5C34439C547E
:10492000039B18418B5C184388546FE60C1D0020D4
:104930003C920E106BB2002B00DA67E6049B3F2B13
:1049400000D963E606267A2D00D9AAE0049B079ACF
:10495000934200DB61E17619B54200DB5DE11F00A7
:10496000D34B9C4601239A46079B9B460723504600
:104970003B409840C0432B002900FA08D40140B2C4
:104980006444625C01330240DBB262541900B342FA
:10499000F7DB0137FFB25F45E8DB414620394B00CA
:1049A0005B18C4495B00C85C5C1806000299059A54
:1049B0008E40D3016344595D31435955072A00D1D4
:1049C0002EE1089AD101039A614410414E5D3043B3
:1049D00048556E1C7F2D00D118E66078029F0200BA
:1049E000BA409F5D1743039A9F5510418F5D38432E
:1049F0008855AE1C7E2D00D108E6A078029F0200EB
:104A0000BA409F5D1743039A9F5510418F5D38430D
:104A10008855EE1C7F2E00DDF8E5E078029F02004D
:104A2000BA409F5D1743039A9F5510418F5D3843ED
:104A300088552E1D7F2E00DDE8E52079029F0200BB
:104A4000BA409F5D1743039A9F5510418F5D3843CD
:104A500088556E1D7F2E00DDD8E56079029A07002B
:104A600097409C5D3C439C55039B18418B5D1843CC
:104A70008855CBE516B0F0BCBB46B246A946A04669
:104A8000F0BC08BC01B01847049B069A009E9342F4
:104A900000DAE1E5864B9C4600E6191C8AE5191C04
:104AA00096E5009E52E7802C00D1ABE663461919CB
:104AB000E0239B009846029A4378414493400F7844
:104AC0003B430B70A91C7F2900D99BE6634659180C
:104AD0008378414493400F783B430B705B467F2BB8
:104AE00000D98FE6E02361469B009846C37859447D
:104AF000934041440F783B430B702B1D7F2B00D913
:104B000080E6E0239B0098460379291D9340614489
:104B100041440F783B430B706B1D7F2B00D971E62E
:104B2000E0239B0098464379691D934061444144CA
:104B30000F783B430B70AB1D7F2B00D962E6E0235F
:104B40009B0098468379A91D9340614441440F78A6
:104B50003B430B70EB1D7F2B00D953E663441900D8
:104B6000C379414493400F783B430B704AE6802C55
:104B700000D14BE5E0239B009846029A437A6444B7
:104B8000934044442178AE1C0B4323707F2E00D900
:104B90003CE5837A66449340464431780B43337056
:104BA0005B467F2B00D931E55946C37A6144934077
:104BB00041440C7823430B702B1D7F2B00D925E536
:104BC00063441900037B414493400C7823430B70EA
:104BD0006B1D7F2B00D919E563441900437B4144C9
:104BE00093400C7823430B70AB1D7F2B00D90DE550
:104BF00063441900837B414493400C7823430B703A
:104C0000EB1D7F2B00D901E563441900C37B4144B0
:104C10009340087803430B70F8E4254B9C46BCE6B0
:104C20006B1C7F2D00D1F1E4E02292009046617868
:104C3000029A634491404344187801431970AB1CB5
:104C40007E2D00D1E2E4E02292009046A178029A03
:104C5000634491404344187801431970EB1C7F2B47
:104C600000DDD3E4E02292009046E178029A6344AA
:104C7000914043441878014319702B1D7F2B00DDB0
:104C8000C4E4E022920090462179029A6344914064
:104C900043441878014319706B1D7F2B00DDB5E488
:104CA0006179634491404344187801431970ADE43D
:104CB0000C1D002000900E100A4B80009C4604231F
:104CC0006044002901D00C230821002A00D10B00E8
:104CD000026853400C221A4080235B011843026093
:104CE0007047C04604C001400123D0228340120611
:104CF00093629361094A8300944640226344196891
:104D0000C0004A40C0211140802252011343196063
:104D1000034B9C46052360444360704704C0014038
:104D200000400140024B18688007C00F7047C04622
:104D300000C0064070B5EFF3108C72B60D4D2B68B5
:104D4000002BFCD0BFF35F8F0724CB08C618C05CD4
:104D500001230C40A3401C000440034207D103433D
:104D60003370BFF35F8F2C608CF3108870BD100020
:104D700001F0F0FC2C0100D0F8B54746CE4688463D
:104D800080B5EFF3108C72B6214D2C68002CFCD04E
:104D9000BFF35F8F9A422CD8D4080727055D061908
:104DA00001241740BC402C421FD00721012789460F
:104DB00009E0D408055D06194C4639001440A140AD
:104DC0000C00294211D001329342F2D2012040421C
:104DD000BFF35F8F00220E4B1A608CF310880028FF
:104DE0000FDBC0BCB946B046F8BD2C431000347090
:104DF000EEE7BFF35F8F00232B608CF31088012058
:104E000040424346002BECD0089801F0A3FCC0467A
:104E10002C0100D00021044B044ABFF35F8F02C372
:104E20009342FAD17047C046000100D0800100D003
:104E3000044A1078431CDBB2172B00D910231370DF
:104E40007047C046380F002000B5054B83B0010005
:104E5000009318221F230348FFF78EFF03B000BD05
:104E60002C980E10A026002001238340002904D096
:104E7000034A1360034A13607047034A1360FBE759
:104E800080E200E000E100E080E100E001228240F9
:104E9000034B1B6813405A1E9341D8B27047C0465B
:104EA00000E100E001238340014A13607047C046DF
:104EB00000E200E0084B10309B688000C358002BD4
:104EC00007D0064A00209B1A2F229A424041C0B2C6
:104ED00070470020FCE7C04600ED00E03C0F0020DA
:104EE000024B10309B688000C058704700ED00E016
:104EF00070B50D00EFF3108672B60F4A1368002BE1
:104F0000FCD0BFF35F8F0D4B10309B6884001B59A2
:104F10000B4A934203D09D4201D001F033FC074B72
:104F20009B681D51BFF35F8FBFF35F8F0022024B61
:104F30001A6086F3108870BD240100D000ED00E0F7
:104F4000CD010010F0B557464E46DE464546E0B569
:104F500085B0060002911700EFF3108B72B6674A16
:104F60001368002BFCD0BFF35F8F0025644B5D57A7
:104F70009A46002D00DAA4E06B00624C03935B19A3
:104F80009B009846A146C1444B4652469B79103639
:104F900013705D4BB2009B68019299580B1B2F2B2D
:104FA00034D95A4B994200D0A4E0039B584A9C46FE
:104FB000584B6544AD006353434602336519E4180A
:104FC000554B0121043B1B1B1B055B0D13436B80E1
:104FD000524BEF71AB80FF23AB71029BAB604B4632
:104FE0000B431900484B019A9B689950BFF35F8FA0
:104FF000BFF35F8F0022414B1A608BF3108805B01E
:10500000F0BCBB46B246A946A046F0BD01200A004E
:105010008243D379BB422FD845464E4613004049C0
:105020001B1B5B415943090D3A4B63533A4B023505
:105030006519043B5B1B1B05354D5B0D2B437380D2
:105040000426B446E0444444131F1B1B4C46A17184
:1050500002991B05A16049465B0D2B43A380314B90
:10506000E77101431360BDE75800C01880002018A5
:10507000C679BE422BD902000623D356002BF3DAA1
:10508000101D82462848804604267642B446E144F4
:1050900050464E46361A3005400D824656461C484C
:1050A000957106439680039A944665441D4AAD0067
:1050B000641922604246A371029BA280E771A3603B
:1050C00090E701F05FFB002553465D5754E7101D44
:1050D000824690884005001584464046D444664682
:1050E00004302018301AE0260005400D3602304307
:1050F0008046C9E701F046FB57E7C046240100D0CF
:10510000055800203C0F002000ED00E0CD0100100C
:1051100000E0FFFF00A1FFFF6C0F002001BDFFFFBB
:10512000AAAA00000148804701BD0000F0B5DE4694
:1051300057464E464546E0B50C0083B0EFF3108964
:1051400072B6584A1368002BFCD0BFF35F8F564BE2
:105150009A68030010339F00D559544A90469542EF
:1051600032D0A54243D0524EAA1B2F2A2CD801225E
:105170008240924651464F4A126811400191514671
:105180004D4A1160BFF35F8FEFF305829346002A0B
:1051900033D101232A009A4393689C4208D177E0D7
:1051A0004B005B189B00F3189968A1422AD01A00A3
:1051B000062151560029F3DA019B002B19D05246E3
:1051C0003E4B1A603B4B1A60374B9B68DD51BFF377
:1051D0005F8FBFF35F8F0022324B1A6089F3108814
:1051E00003B0F0BCBB46B246A946A046F0BD1500D0
:1051F000EAE75246304B1A60E6E79342C9D001F025
:10520000C1FAC6E706215956002921DB4A00501889
:10521000800034188046A0689860E079D871062034
:1052200020569871002824DBA488F01A6405241500
:1052300044440019E0240005400D240220439880D6
:1052400052181F4B9200B6181A781970B271B3E752
:10525000594600290FD1FF3191711A49918018499F
:105260000A789A71184A9B1B5B415A43120D0A70C7
:10527000A2E71648E3E7164A1649D21A083A50023E
:10528000400D01439980144952080A43DA8093E79C
:105290000621515613000029B8DA5A46002AEAD1ED
:1052A0004546DCE7240100D000ED00E0CD01001010
:1052B0003C0F002000E100E080E100E080E200E03F
:1052C0000558002001BDFFFFAAAA000001BD000093
:1052D000760F002000F0FFFF00F8FFFF70B5EFF33E
:1052E000058101240443EFF3108C72B6214A136840
:1052F000002BFCD0BFF35F8F1F4B05001F4AED1A38
:105300006D416A43120D1E4D8900AE6852B2765847
:10531000A6421CD00621595691421CD01221595642
:10532000914222D01E215956914220D02A2159560D
:105330000324914210D0134B19781A708171BFF376
:105340005F8F00220B4B1A608CF3108870BDAB6826
:105350000D4C5C50EFE700246100091989005B18CF
:10536000FF21997109499980E5E70124F4E70224B6
:10537000F2E7C046240100D03C0F0020AAAA00009A
:1053800000ED00E005580020CD01001001BDFFFF39
:10539000054B064A1360064A136053609360D3605E
:1053A00013615361936170478080808000E400E066
:1053B00004E400E000B5074B83B001000093002235
:1053C00005230548FFF7D8FC002801DB1F23181A26
:1053D00003B000BD48980E100A580020024B9C46AE
:1053E00061448900016070474000003410B504003A
:1053F000FFF71EFD01002000FFF7F0FFFF232371E0
:10540000BFF35F8F10BDC04610B50400FFF710FD5D
:1054100001002000FFF7E2FFFF23A380BFF35F8FAF
:1054200010BDC04610B504000120FFF70DFD044B70
:105430009C46604480002060BFF35F8F10BDC04673
:1054400040000034034B9C46614489000160BFF377
:105450005F8F70474000003483680B4810B5844666
:1054600061446244090112019A18591854684B6842
:1054700001209C4201D802D00020C0B210BD1268A9
:105480000B689A42F9D8F7E7FFFFFF0F0A4B19683C
:10549000EFF3108072B60A68002AFCD0BFF35F8F6A
:1054A0001B68BFF35F8F00221A6080F3108840BF33
:1054B000002000217047C046F4560020F8B557463A
:1054C0004E464546DE46E0B599460CAB1C780DAB22
:1054D0001B78060090469A460768002C11D1BC7BC9
:1054E000002C42D065003B682D19033D59194B78BB
:1054F000BB73002B00D1FB7300238B704B700B70C0
:1055000004E065003B682D19033D5919B2682A4B28
:1055100094464246E3181B0163441A604A465A60A7
:105520000A9A9A600B9ADA6000238B704B700B70AA
:105530007B7B9B46002B2BD022005946B8687B68AA
:1055400098473A68002816D05B4658465B005B4493
:105550005519033BA870D118D35C002B00D06B7099
:105560005B460C707B73A34513D0F0BCBB46B246C0
:10557000A946A046F8BD5B465B005B44033BD318DD
:105580009C705119525D002A00D05A705B460B7016
:105590007C7342464B46307D00F0A8FB051E06D0CA
:1055A0005346002B03D12100306800F0C3FD0E9B51
:1055B000002BDAD01D70D8E7FFFFFF0FF0B5DE46F5
:1055C00057464E4645460023E0B58BB00893674BDF
:1055D0008200D45800239B46099000F027FB6268A4
:1055E00006000F00EFF3108572B61368002BFCD095
:1055F000BFF35F8F23689C465B7B9946002B00D1ED
:1056000069E0A2685A4B90464B441B0198444346BC
:105610001A685B6810001900801BB941002900DC82
:1056200063E0099800F062FB002300229846002303
:105630000692079300239A466368BFF35F8F5A462A
:105640001A6085F310885346002B08D10028C4D176
:105650000BB0F0BCBB46B246A946A046F0BD089BC5
:10566000414618024B461843D047626806000F00B7
:10567000EFF3108572B61368002BFCD0BFF35F8F79
:10568000002F50DB33003B4302D02369002B61D154
:105690002368D97B002907D04A00521819688C4624
:1056A00049466244033A51709A7B002A01D14A4626
:1056B0009A734A46DA734B46E168013BCA5C013291
:1056C000CA545B4623616368BFF35F8F5A461A6012
:1056D00085F3108881E70023002298460023069274
:1056E0000793002300209A46A6E7002902D100284C
:1056F00000D096E70021604600F09AFC43461A6805
:105700005B680692079343469B689A464346DB686C
:105710009846E3684B44013B1B7808931B02034304
:105720002361002088E72369002BB1D0069A079BEC
:10573000921BBB41002B15DB5946049101210391BB
:105740004946029141460191514620000091FFF7E0
:10575000B5FEB6E700F06AFA32003B0012184B4182
:10576000002BE9DA0122034B5242E5E7D85600202C
:10577000FFFFFF0FFFFFFF7F10B5144C6368002B86
:1057800004D00A211248FFF729FE10BD2300114A58
:105790001021206800F066FB032000F03BFA032094
:1057A00000F00EFB03200C4900F05AFAFFF740FB13
:1057B0000A4B9C4603232375D0231B061B686044B9
:1057C0006375074B80006060DC60DAE7840F0020BF
:1057D000F456002059540010BD550010400000340C
:1057E000D856002000487047840F0020F0B54E4680
:1057F0004546DE465746E0B585B0019310AB1B78B1
:105800000600039300239946984600927268EFF3CE
:10581000108B72B61368002BFCD0BFF35F8F356816
:10582000AC7B002C3DD067002B683F19033FDB1990
:105830005A78AA73002A00D1EA73B168474A8C46A5
:1058400000980199A21812016244106051600E99EB
:1058500091600F99D16042469A705A701A706B7BB2
:105860009A46002B67D022001900A8686B689847F9
:105870002A68002852D0534650465B005344D7193B
:10588000033BB870D118D35C002B00D07B7053461B
:105890000C706B7354454FD0F3681B19013B18789B
:1058A00000E000207368BFF35F8F42461A608BF3FD
:1058B0001088002C4FD04B46002B08D1000220430B
:1058C00005B0F0BCBB46B246A946A046F0BD039B5E
:1058D000002B3ED00E9B00200F9998470300040038
:1058E0000D000B4335D000290ADA009A019B121BE8
:1058F000AB4100920193002B0ADB039B994685E79D
:1059000000F094F924184D4100940195002DF4DA2B
:105910000123134C5B4200930194EEE753465B0076
:105920005344033BD3189C70D119D25D002A00D098
:105930005A7053460B706C73307D009A019B00F0D7
:10594000D5F981460028A7D02100306800F0F2FB8D
:10595000A2E70020B4E701204042B1E7FFFFFF0FBC
:10596000FFFFFF7F407D7047F0B504000D00062665
:105970007642F717C64636196F4100B584B08F429C
:1059800014D811D000F052F932003B00121A8B41AA
:10599000002B15DC002B3ED02000290000F050F930
:1059A00004B080BCB846F0BD8642EBD90026002783
:1059B00000F03CF932003B00121A8B41002BE9DD6C
:1059C000002302930193154B3200009314483B00CF
:1059D000FFF70CFF0028DFDB00239846BC46114A86
:1059E000114F7B6A9C4504D8B96A8E42D4D99C4534
:1059F000D2D11168EFF3108072B60B68002BFCD087
:105A0000BFF35F8F1368BFF35F8F4146196080F368
:105A1000108820BFE5E7002ABED0D1E78D540010E2
:105A2000840F0020F45600200040054070B50400AB
:105A30000D0000F0FBF800196941002902DBFFF7B7
:105A400093FF70BD012001494042F8E7FFFFFF7F4F
:105A500070B5060000F0EAF8FA2204000D000023F9
:105A600030000021920003F01DF80019694100295F
:105A700002DBFFF779FF70BD012001494042F8E7E2
:105A8000FFFFFF7FF0B5EFF30583CE46474680B5B5
:105A900005000C0085B0002B12D02C4A0020536A60
:105AA0009C4203D8926A0130AA4204D305B0C0BC1C
:105AB000B946B046F0BDE01A421E9041C0B2F5E7CB
:105AC000234E02930193234B0200009330000B00FE
:105AD000FFF78CFE031EE0DD20BF7168EFF3108737
